:100000000C9436000C9453000C9453000C94530041
:100010000C9453000C9453000C9453000C94530014
:100020000C9453000C9453000C9453000C94530004
:100030000C9453000C9469010C9453000C945300DD
:100040000C9453000C9453000C9453000C945300E4
:100050000C9453000D0A000D0A000D0A000D0A0051
:100060000D0A007766696E69740D0A0011241FBEBF
:10007000CFE5D8E0DEBFCDBF10E0A0E6B0E0EAE417
:10008000F0E102C005900D92AC3FB107D9F712E044
:10009000ACEFB0E001C01D92AB3EB107E1F70E94AA
:1000A000C8020C9423080C9400009C0140E050E02E
:1000B000CA01B90160587B47814E9F4FF3E0660F3C
:1000C000771F881F991FFA95D1F7E4E0220F331F9D
:1000D000441F551FEA95D1F70E94F4062150304085
:1000E0008FEF8093FF008091FF008093FE0030BD72
:1000F00029B986E880BD88E98AB978940895EF9295
:10010000FF920F931F93262F7C0100E010E030E058
:1001100040E050E0CA01B90128E438EE41E050E087
:100120000E94C2066E0D7F1D801F911FB3E0660FF7
:10013000771F881F991FBA95D1F7A4E0EE0CFF1C1A
:10014000001F111FAA95D1F7A80197010E94160759
:10015000215030408FEF8093FF008091FF0080930B
:10016000FE0030BD29B986E880BD88E98AB9789457
:100170001F910F91FF90EF9008958091FE008F3FA7
:1001800011F4E0E01DC0E091FE00FF27E7FDF095CF
:10019000E050FF4FE0819091FE008091FF009817A2
:1001A00041F48FEF8093FF008091FF008093FE0069
:1001B00007C08091FE008F5F8093FE008091FE005B
:1001C0008E2F08955D9BFECF8CB90895FC0104C06D
:1001D0005D9BFECF8CB9319680818823C9F7089545
:1001E00003C05D9BFECF2CB9FC0101962491222314
:1001F000C1F70895EF92FF920F931F93CF93DF9370
:100200007C018B01C0E0D0E007C00E94BD00F70177
:10021000EC0FFD1F80832196C017D107B0F3DF914B
:10022000CF911F910F91FF90EF9008958091FE0064
:100230008F3F11F490E01AC09091FE008091FF0072
:10024000981734F49091FF008091FE009F5F0DC0DD
:100250009091FE008091FF00891714F091E006C094
:100260009091FF008091FE00935D981B892F089567
:1002700002C00E94BD000E9416018823D1F7089594
:100280001F93CF93DF93EC01162F0E941601811765
:10029000E0F3CE01612F70E00E94FA0081E0DF916F
:1002A000CF911F9108951F93CF93DF93EC01162FE9
:1002B0000E941601811738F0CE01612F70E00E9474
:1002C000FA0081E002C0188280E0DF91CF911F9197
:1002D00008951F920F920FB60F9211242F933F9300
:1002E0004F938F939F93EF93FF934CB18091FF00B7
:1002F0008091FF002091FE00992787FD909501963F
:10030000332727FD30958217930739F48091FE003B
:100310008F5F8093FE008091FE008091FF008091AE
:10032000FF008F5F8093FF00E091FF00FF27E7FD54
:10033000F095E050FF4F40838091FE008F3F11F415
:100340001092FE00FF91EF919F918F914F913F91FD
:100350002F910F900FBE0F901F90189580E090E0A6
:10036000FC01E050FF4F1082019680389105C1F7E3
:1003700008958FB5826A8FBD8EB58B618EBD87E87B
:1003800093E197BD86BD81B3806381BB089582E808
:1003900090E09BBD8ABD08958EE591E09BBD8ABD2E
:1003A000089585E192E09BBD8ABD0895662311F012
:1003B000DC9A01C0DC98DD98A49AA59AA69AA79A1F
:1003C000AF98AE98AD98AC9887FDAF9A86FDAE9A7F
:1003D00085FDAD9A84FDAC9ADE9A00C0DE98AF9898
:1003E000AE98AD98AC9883FDAF9A82FDAE9A81FD30
:1003F000AD9A80FDAC9ADE9A00C0DE98AC9AAD9AB8
:10040000AE9AAF9A089580E097E20197F1F784E001
:1004100090E00197F1F7DC98DD9AA498A598A6984A
:10042000A798DE9A00C09C9B02C080E101C080E0DA
:100430009D9980629E9980649F998068DE9800C033
:10044000DE9A00C09C9981609D9982609E9984602B
:100450009F998860DE9808951F93182F0E940302C9
:10046000812F60E00E94D6011F9108951F93182FDD
:100470000E940302812F61E00E94D6011F9108951E
:10048000662311F4805801C080540E942C02089504
:100490000E94030290E0089581E00E942C020895DA
:1004A00082E00E942C0208951F93182F0E940302DD
:1004B0001A3049F4803410F080E001C080E48058A4
:1004C0000E942C0204C0812F61E00E94D6011F917E
:1004D0000895CF93DF93EC0102C00E9454028991EA
:1004E0008823D9F7DF91CF910895CF93DF93EC0163
:1004F00002C00E945402FE01219684918823C9F70C
:10050000DF91CF910895CF93DF93EC0102C00E9459
:100510005402FE01219684918823C9F7DF91CF917F
:100520000895D49AD59AD69AA49AA59AA69AA79AE3
:1005300080E09DE70197F1F7AD9AAC9ADE9A00C092
:10054000DE9880E097E20197F1F7DE9A00C0DE982E
:1005500080E890E0FC013197F1F7DE9A00C0DE9868
:10056000FC013197F1F7AC98DE9A00C0DE98019754
:10057000F1F788E20E942C0288E00E942C020E947F
:100580004C0286E00E942C028CE00E942C0208950E
:10059000AF92BF92CF92DF92EF92FF920F931F9391
:1005A000DF93CF93CDB7DEB7E2970FB6F894DEBFF7
:1005B0000FBECDBF0E94910280E690E00E946902CA
:1005C00080E895E20E94550082E090E00E94540588
:1005D0000E94A90688E690E066E770E00E946D063A
:1005E00080E197E220E931E0F9013197F1F70197D5
:1005F000D9F781E890E00E94690280E197E220E962
:1006000031E0F9013197F1F70197D9F70E94B9016B
:100610007E010894E11CF11C8E01065E1F4F95E1DE
:10062000A92E92E0B92E82E8C82ED12C8DE890E058
:100630000E94690280E061E00E94400289E990E046
:100640000E94690285EA90E0B7010E9429060E9493
:100650004C02C7010E946902C70168ED70E0A80161
:100660000E947E05C8016DED70E00E94B105019702
:1006700011F4BBBCAABCC80162EE70E00E94B105D7
:100680000197A1F6DBBCCABCD1CF0F931F93DF93B8
:10069000CF93CDB7DEB727970FB6F894DEBF0FBE66
:1006A000CDBF8E010F5F1F4FA8012AE030E00E94EE
:1006B000D707C8010E94690227960FB6F894DEBFDB
:1006C0000FBECDBFCF91DF911F910F9108950F9372
:1006D0001F93DF93CF93CDB7DEB727970FB6F8946C
:1006E000DEBF0FBECDBF8E010F5F1F4FA8012AE0F6
:1006F00030E00E94D707C8010E94E60027960FB697
:10070000F894DEBF0FBECDBFCF91DF911F910F9147
:1007100008950F931F93DF93CF93CDB7DEB727973D
:100720000FB6F894DEBF0FBECDBF8E010F5F1F4F17
:10073000B8014AE050E00E94B607C8010E94E600F6
:1007400027960FB6F894DEBF0FBECDBFCF91DF91D5
:100750001F910F9108958230F9F0833018F48130A1
:1007600031F407C0833059F1843009F442C080E08D
:100770000895693019F41ABA89B308958AB321E04B
:1007800030E0062E02C0220F331F0A94E2F72095B4
:1007900028232ABB89B325C0693019F417BA86B358
:1007A000089587B321E030E0062E02C0220F331FE8
:1007B0000A94E2F72095282327BB86B312C069303C
:1007C00019F414BA83B3089584B321E030E0062EFF
:1007D00002C0220F331F0A94E2F72095282324BB7E
:1007E00083B390E002C0959587956A95E2F7817092
:1007F0000895693019F411BA80B3089531B381E0D6
:1008000090E0062E02C0880F991F0A94E2F7282F65
:100810002095232321BB22B3822B82BB80B390E09F
:1008200002C0959587956A95E2F7817008958230A8
:1008300009F441C0833020F4813009F0D7C007C0EB
:10084000833009F46CC0843009F0D0C09CC06B3593
:1008500021F48FEF8ABB4BBB0895442321F0413034
:1008600009F0C4C014C0693021F48FEF8ABB1BBAF1
:1008700008958AB321E030E002C0220F331F6A9549
:10088000E2F7822B8ABB8BB32095282312C06930F4
:1008900021F48FEF8ABB8BBB08958AB321E030E04F
:1008A00002C0220F331F6A95E2F7822B8ABB8BB3FB
:1008B000282B2BBB08956B3521F48FEF87BB48BBEA
:1008C0000895442321F0413009F090C014C06930EC
:1008D00021F48FEF87BB18BA089587B321E030E089
:1008E00002C0220F331F6A95E2F7822B87BB88B3C1
:1008F0002095282312C0693021F48FEF87BB88BB75
:10090000089587B321E030E002C0220F331F6A95BB
:10091000E2F7822B87BB88B3282B28BB08956B3561
:1009200021F48FEF84BB45BB0895442321F041306F
:1009300009F05CC014C0693021F48FEF84BB15BA94
:10094000089584B321E030E002C0220F331F6A957E
:10095000E2F7822B84BB85B32095282312C069302F
:1009600021F48FEF84BB85BB089584B321E030E090
:1009700002C0220F331F6A95E2F7822B84BB85B336
:10098000282B25BB08956B3521F48FEF81BB42BB2B
:100990000895442319F0413049F515C0693021F418
:1009A0008FEF81BB12BA089581B321E030E002C01D
:1009B000220F331F6A95E2F7822B81BB82B3209509
:1009C000282322BB0895693021F48FEF81BB82BBBD
:1009D000089581B321E030E002C0220F331F6A95F1
:1009E000E2F7822B81BB82B3282B22BB0895833090
:1009F00019F1843009F43CC0823009F054C044231A
:100A000021F0413009F04FC00CC027B381E090E0E5
:100A100002C0880F991F6A95E2F78095822387BBF1
:100A2000089527B381E090E002C0880F991F6A956E
:100A3000E2F7282B27BB0895442319F0413099F59C
:100A40000CC024B381E090E002C0880F991F6A9522
:100A5000E2F78095822384BB089524B381E090E07F
:100A600002C0880F991F6A95E2F7282B24BB0895CE
:100A7000442319F04130B9F40CC021B381E090E077
:100A800002C0880F991F6A95E2F78095822381BB87
:100A9000089521B381E090E002C0880F991F6A9504
:100AA000E2F7282B21BB0895882321F481E067E039
:100AB00040E004C0813041F467E041E00E94170447
:100AC00083E062E040E00AC0823059F481E067E0F0
:100AD00040E00E94170483E062E041E00E941704B6
:100AE0000895833051F481E067E041E00E941704EB
:100AF00083E062E041E00E9417040895EF92FF92C4
:100B00000F931F93CF93DF93EA010E949C070097F6
:100B100019F420E030E01DC0019669EE70E00E94FB
:100B20009C077C0183E090E0E80EF91EC70162E2B9
:100B300070E00E9463078C010E191F09CE01B701F6
:100B4000A8010E948D070C0F1D1FF801108221E0E3
:100B500030E0C901DF91CF911F910F91FF90EF908D
:100B60000895DB010D900020E9F71197A61BB70B44
:100B70004A2F50E00E94750720E030E0892B11F4E5
:100B800021E030E0C90108950E9445070895D29AF6
:100B9000DA98089581E090E00895D29ADA9888E88A
:100BA00093E120E931E0F9013197F1F70197D9F7A5
:100BB000DA9A80E49CE920E931E0F9013197F1F714
:100BC0000197D9F70895AF92BF92CF92DF92FF922B
:100BD0000F931F93CF93DF936C01FF24C0E0D0E00D
:100BE00080EAA82E8FE0B82E04C02196C501019797
:100BF000F1F70E941601892B19F4CC15DD05A8F335
:100C0000CC15DD05C9F00F2D10E00E94BD00F801E4
:100C1000E75BFD4F80838A3069F482E08F1550F4E2
:100C20000E943801980121503040F901E75BFD4FE7
:100C3000108204C0F394DDCF20E030E0C901DF91E1
:100C4000CF911F910F91FF90DF90CF90BF90AF9009
:100C50000895EF92FF920F931F938C017B010E94E6
:100C600038018CEE90E00E94E60087E590E00E945B
:100C7000F00082E390E00E94E3050E9438011092A8
:100C80004902C8010E94E60084E590E00E94F0005D
:100C900088EE93E00E94E305C70169E472E00E94D8
:100CA0006E070E9438018091FC009091FD00019632
:100CB0009093FD008093FC0062E370E00E94E106E7
:100CC000892B21F481EF90E00E94E60088EC90E00F
:100CD0001F910F91FF90EF900895EF92FF920F9365
:100CE0001F938C017B0181E392E0B8010E946E07A3
:100CF0008DE392E0B7010E946E070E94380187EFF2
:100D000090E00E94E60080E690E00E94F00082E31E
:100D100090E00E94E305C8010E94E6008DE590E0A6
:100D20000E94F00082E390E00E94E305C7010E9468
:100D3000E6008AE590E00E94F00082E390E00E94E5
:100D4000E30520E030E0C9011F910F91FF90EF9083
:100D500008950E94CD0583E690E00E94F00084EFA4
:100D600091E020E931E0F9013197F1F70197D9F7E6
:100D700088EC90E00E94E3050E94380108950E94EB
:100D8000A9060895629FD001739FF001829FE00D34
:100D9000F11D649FE00DF11D929FF00D839FF00DFA
:100DA000749FF00D659FF00D9927729FB00DE11DA6
:100DB000F91F639FB00DE11DF91FBD01CF01112483
:100DC000089597FB092E07260AD077FD04D049D055
:100DD00006D000201AF4709561957F4F0895F6F7BC
:100DE000909581959F4F0895A1E21A2EAA1BBB1BD7
:100DF000FD010DC0AA1FBB1FEE1FFF1FA217B307E7
:100E0000E407F50720F0A21BB30BE40BF50B661FFC
:100E1000771F881F991F1A9469F7609570958095C0
:100E200090959B01AC01BD01CF01089597FB092E60
:100E300005260ED057FD04D0D7DF0AD0001C38F4A9
:100E400050954095309521953F4F4F4F5F4F0895F6
:100E5000F6F790958095709561957F4F8F4F9F4FD6
:100E60000895AA1BBB1B51E107C0AA1FBB1FA617F1
:100E7000B70710F0A61BB70B881F991F5A95A9F743
:100E800080959095BC01CD010895FC018827992794
:100E9000E89421912032E9F3293010F02E30C8F384
:100EA0002B3241F02D3239F4689404C00E940B08B3
:100EB000820F911D219120532A30C0F31EF490958A
:100EC00081959F4F0895FC018191861721F0882319
:100ED000D9F7992708953197CF010895FB01DC01D7
:100EE00001900D920020E1F70895FB01DC014150D3
:100EF000504088F08D9181341CF08B350CF4805E6D
:100F0000619161341CF06B350CF4605E861B6111DD
:100F100071F3990B0895881BFCCFFB01DC01415054
:100F2000504048F001900D920020C9F701C01D9279
:100F300041505040E0F70895FB0151915523A9F02D
:100F4000BF01DC014D9145174111E1F759F4CD0185
:100F50000190002049F04D9140154111C9F3FB016A
:100F60004111EFCF81E090E001970895FB019F01CF
:100F7000E8944230C4F04532B4F44A3029F497FB87
:100F80001EF4909581959F4F642F77270E9431071B
:100F9000805D8A330CF0895D8193CB010097A1F7C6
:100FA00016F45DE251931082C9010C941308FA0102
:100FB000CF93FF93EF93223044F1253234F5C22FC3
:100FC000E894CA3049F497FB3EF49095809570956B
:100FD00061957F4F8F4F9F4F2C2F332744275527E5
:100FE000FF93EF930E94F406EF91FF91605D6A33E7
:100FF0000CF0695D6193B901CA0160507040804096
:10100000904051F716F4CDE2C19310828F919F91D9
:10101000CF910C9413087AE0979F902D879F802D95
:10102000910D11240895DC01FC01672F7191772344
:10103000E1F7329704C07C916D9370836291AE1793
:0A104000BF07C8F30895F894FFCF2E
:10104A0077656C636F6D65004A696F4669325F3117
:10105A003746394346006D6E6D73377A6932736964
:10106A0000776966695F636F6E6E746400676574A2
:10107A00696E675F696E666F0066726F6D5F736532
:10108A007276657200687474703A2F2F6170692ED7
:10109A00636C6F626F75732E636F6D2F486172692F
:1010AA00313331312F646174612F726574726965ED
:1010BA0076653F646F6F7200646F6F72006C6F6366
:1010CA006B00756E6C6F636B00223A006874747003
:0C10DA00006F74610D0A0077636F6E00F8
:00000001FF
